8=FIXT.1.1|9=80|35=A|34=1|49=CLEINT|52=20230505-06:14:51.503|56=SERVER|98=0|108=30|141=Y|1137=8|10=075|
8=FIXT.1.1|9=80|35=A|34=1|49=CLEINT|52=20230505-06:14:56.479|56=SERVER|98=0|108=30|141=Y|1137=8|10=092|
8=FIXT.1.1|9=80|35=A|34=1|49=CLEINT|52=20230505-06:15:01.481|56=SERVER|98=0|108=30|141=Y|1137=8|10=076|
8=FIXT.1.1|9=80|35=A|34=1|49=CLEINT|52=20230505-06:15:06.479|56=SERVER|98=0|108=30|141=Y|1137=8|10=088|
8=FIXT.1.1|9=80|35=A|34=1|49=CLEINT|52=20230505-06:23:29.142|56=SERVER|98=0|108=30|141=Y|1137=8|10=079|
8=FIXT.1.1|9=80|35=A|34=1|49=CLEINT|52=20230505-06:23:34.147|56=SERVER|98=0|108=30|141=Y|1137=8|10=080|
8=FIXT.1.1|9=80|35=A|34=1|49=CLEINT|52=20230505-06:23:39.140|56=SERVER|98=0|108=30|141=Y|1137=8|10=078|
8=FIXT.1.1|9=80|35=A|34=1|49=CLEINT|52=20230505-06:23:44.146|56=SERVER|98=0|108=30|141=Y|1137=8|10=080|
8=FIXT.1.1|9=80|35=A|34=1|49=CLEINT|52=20230505-06:23:49.137|56=SERVER|98=0|108=30|141=Y|1137=8|10=085|
8=FIXT.1.1|9=80|35=A|34=1|49=CLEINT|52=20230505-06:23:54.159|56=SERVER|98=0|108=30|141=Y|1137=8|10=085|
8=FIXT.1.1|9=80|35=A|34=1|49=CLEINT|52=20230505-06:23:59.145|56=SERVER|98=0|108=30|141=Y|1137=8|10=085|
8=FIXT.1.1|9=80|35=A|34=1|49=CLEINT|52=20230505-06:24:04.145|56=SERVER|98=0|108=30|141=Y|1137=8|10=076|
8=FIXT.1.1|9=80|35=A|34=1|49=CLEINT|52=20230505-06:24:09.142|56=SERVER|98=0|108=30|141=Y|1137=8|10=078|
8=FIXT.1.1|9=80|35=A|34=1|49=CLEINT|52=20230505-06:24:14.141|56=SERVER|98=0|108=30|141=Y|1137=8|10=073|
8=FIXT.1.1|9=80|35=A|34=1|49=CLEINT|52=20230505-06:24:19.135|56=SERVER|98=0|108=30|141=Y|1137=8|10=081|
8=FIXT.1.1|9=80|35=A|34=1|49=CLEINT|52=20230505-06:24:24.139|56=SERVER|98=0|108=30|141=Y|1137=8|10=081|
8=FIXT.1.1|9=80|35=A|34=1|49=CLEINT|52=20230505-06:24:29.142|56=SERVER|98=0|108=30|141=Y|1137=8|10=080|
8=FIXT.1.1|9=80|35=A|34=1|49=CLEINT|52=20230505-06:24:35.145|56=SERVER|98=0|108=30|141=Y|1137=8|10=080|
8=FIXT.1.1|9=80|35=A|34=1|49=CLEINT|52=20230505-06:24:40.134|56=SERVER|98=0|108=30|141=Y|1137=8|10=074|
8=FIXT.1.1|9=80|35=A|34=1|49=CLEINT|52=20230505-06:24:45.145|56=SERVER|98=0|108=30|141=Y|1137=8|10=081|
8=FIXT.1.1|9=80|35=A|34=1|49=CLEINT|52=20230505-06:24:50.138|56=SERVER|98=0|108=30|141=Y|1137=8|10=079|
8=FIXT.1.1|9=80|35=A|34=1|49=CLEINT|52=20230505-06:24:55.142|56=SERVER|98=0|108=30|141=Y|1137=8|10=079|
8=FIXT.1.1|9=80|35=A|34=1|49=CLEINT|52=20230505-06:25:00.133|56=SERVER|98=0|108=30|141=Y|1137=8|10=070|
8=FIXT.1.1|9=80|35=A|34=1|49=CLEINT|52=20230505-06:25:05.147|56=SERVER|98=0|108=30|141=Y|1137=8|10=080|
8=FIXT.1.1|9=80|35=A|34=1|49=CLEINT|52=20230505-06:25:10.143|56=SERVER|98=0|108=30|141=Y|1137=8|10=072|
8=FIXT.1.1|9=80|35=A|34=1|49=CLEINT|52=20230505-06:25:15.148|56=SERVER|98=0|108=30|141=Y|1137=8|10=082|
8=FIXT.1.1|9=80|35=A|34=1|49=CLEINT|52=20230505-06:25:20.147|56=SERVER|98=0|108=30|141=Y|1137=8|10=077|
8=FIXT.1.1|9=80|35=A|34=1|49=CLEINT|52=20230505-06:25:25.148|56=SERVER|98=0|108=30|141=Y|1137=8|10=083|
8=FIXT.1.1|9=80|35=A|34=1|49=CLEINT|52=20230505-06:25:30.143|56=SERVER|98=0|108=30|141=Y|1137=8|10=074|
8=FIXT.1.1|9=80|35=A|34=1|49=CLEINT|52=20230505-06:25:36.152|56=SERVER|98=0|108=30|141=Y|1137=8|10=080|
8=FIXT.1.1|9=80|35=A|34=1|49=CLEINT|52=20230505-06:25:41.150|56=SERVER|98=0|108=30|141=Y|1137=8|10=074|
8=FIXT.1.1|9=80|35=A|34=1|49=CLEINT|52=20230505-06:25:46.149|56=SERVER|98=0|108=30|141=Y|1137=8|10=087|
8=FIXT.1.1|9=80|35=A|34=1|49=CLEINT|52=20230505-06:25:51.151|56=SERVER|98=0|108=30|141=Y|1137=8|10=076|
8=FIXT.1.1|9=80|35=A|34=1|49=CLEINT|52=20230505-06:25:56.151|56=SERVER|98=0|108=30|141=Y|1137=8|10=081|
8=FIXT.1.1|9=80|35=A|34=1|49=CLEINT|52=20230505-06:26:01.148|56=SERVER|98=0|108=30|141=Y|1137=8|10=078|
8=FIXT.1.1|9=80|35=A|34=1|49=CLEINT|52=20230505-06:26:06.147|56=SERVER|98=0|108=30|141=Y|1137=8|10=082|
8=FIXT.1.1|9=80|35=A|34=1|49=CLEINT|52=20230505-06:26:11.151|56=SERVER|98=0|108=30|141=Y|1137=8|10=073|
8=FIXT.1.1|9=80|35=A|34=1|49=CLEINT|52=20230505-06:26:16.143|56=SERVER|98=0|108=30|141=Y|1137=8|10=079|
8=FIXT.1.1|9=80|35=A|34=1|49=CLEINT|52=20230505-06:26:21.150|56=SERVER|98=0|108=30|141=Y|1137=8|10=073|
8=FIXT.1.1|9=80|35=A|34=1|49=CLEINT|52=20230505-06:26:26.135|56=SERVER|98=0|108=30|141=Y|1137=8|10=081|
8=FIXT.1.1|9=80|35=A|34=1|49=CLEINT|52=20230505-06:26:31.132|56=SERVER|98=0|108=30|141=Y|1137=8|10=074|
8=FIXT.1.1|9=80|35=A|34=1|49=CLEINT|52=20230505-06:26:36.134|56=SERVER|98=0|108=30|141=Y|1137=8|10=081|
8=FIXT.1.1|9=80|35=A|34=1|49=CLEINT|52=20230505-06:26:41.135|56=SERVER|98=0|108=30|141=Y|1137=8|10=078|
8=FIXT.1.1|9=80|35=A|34=1|49=CLEINT|52=20230505-06:26:47.143|56=SERVER|98=0|108=30|141=Y|1137=8|10=083|
8=FIXT.1.1|9=80|35=A|34=1|49=CLEINT|52=20230505-06:26:52.132|56=SERVER|98=0|108=30|141=Y|1137=8|10=077|
8=FIXT.1.1|9=80|35=A|34=1|49=CLEINT|52=20230505-06:26:57.139|56=SERVER|98=0|108=30|141=Y|1137=8|10=089|
8=FIXT.1.1|9=80|35=A|34=1|49=CLEINT|52=20230505-06:27:02.134|56=SERVER|98=0|108=30|141=Y|1137=8|10=075|
8=FIXT.1.1|9=80|35=A|34=1|49=CLEINT|52=20230505-06:27:07.154|56=SERVER|98=0|108=30|141=Y|1137=8|10=082|
8=FIXT.1.1|9=80|35=A|34=1|49=CLEINT|52=20230505-06:27:12.140|56=SERVER|98=0|108=30|141=Y|1137=8|10=073|
8=FIXT.1.1|9=80|35=A|34=1|49=CLEINT|52=20230505-06:27:17.137|56=SERVER|98=0|108=30|141=Y|1137=8|10=084|
8=FIXT.1.1|9=80|35=A|34=1|49=CLEINT|52=20230505-06:27:22.141|56=SERVER|98=0|108=30|141=Y|1137=8|10=075|
8=FIXT.1.1|9=80|35=A|34=1|49=CLEINT|52=20230505-06:27:27.145|56=SERVER|98=0|108=30|141=Y|1137=8|10=084|
8=FIXT.1.1|9=80|35=A|34=1|49=CLEINT|52=20230505-06:27:32.142|56=SERVER|98=0|108=30|141=Y|1137=8|10=077|
8=FIXT.1.1|9=80|35=A|34=1|49=CLEINT|52=20230505-06:27:37.143|56=SERVER|98=0|108=30|141=Y|1137=8|10=083|
