8=FIXT.1.1|9=80|35=A|34=1|49=CLEINT|52=20230505-06:27:37.143|56=SERVER|98=0|108=30|141=Y|1137=8|10=083|